:100000000C9434000C9493040C94BC040C94510094
:100010000C9451000C9451000C94F1000C9453007A
:100020000C9451000C9451000C9451000C948600D7
:100030000C9451000C9451000C9451000C945100FC
:100040000C9451000C9451000C9451000C945100EC
:100050000C9451000C9451000C9451000C945100DC
:100060000C9451000C94510011241FBECFEFD8E026
:10007000DEBFCDBF11E0A0E0B1E0E6EFF9E002C0E5
:1000800005900D92A230B107D9F711E0A2E0B1E0DE
:1000900001C01D92A332B107E1F70E9420010C9428
:1000A000F9040C9400001F920F920FB60F921124C6
:1000B0002F933F934F935F936F937F938F939F9370
:1000C000AF93BF93EF93FF9387E061E00E9420021C
:1000D0008091020190910301019690930301809316
:1000E000020187E060E00E942002FF91EF91BF9142
:1000F000AF919F918F917F916F915F914F913F91C0
:100100002F910F900FBE0F901F9018951F920F9276
:100110000FB60F9211242F933F934F935F936F93DA
:100120007F938F939F93AF93BF93EF93FF9386E05B
:1001300061E00E9420020E94800286E060E00E944E
:100140002002FF91EF91BF91AF919F918F917F918D
:100150006F915F914F913F912F910F900FBE0F9034
:100160001F901895EF92FF920F931F930E947302B6
:10017000E0900201F09003010E946F020027F7FC5B
:100180000095102FB701C8011F910F91FF90EF90BC
:100190000895A1E8B0E08C9188608C938FE293E0A1
:1001A0009093890080938800EFE6F0E08081826080
:1001B00080838C9183608C93E0EBF0E0808182609F
:1001C00080838FE18093B300E0E7F0E0808182607C
:1001D0008083E1EBF0E08081836080830E946F0286
:1001E00008951F920F920FB60F9211242F933F93F1
:1001F0004F935F936F937F938F939F93AF93BF932F
:10020000EF93FF9380E061E00E942002809104015F
:100210008F5F8093040180E060E00E942002FF91E4
:10022000EF91BF91AF919F918F917F916F915F916E
:100230004F913F912F910F900FBE0F901F901895E7
:10024000EF92FF920F931F930E9468020E94A601F3
:1002500084E061E00E9420020E94C9000E94960290
:100260000E940B0384E060E00E9420020E94B20022
:100270007B018C018091050190910601A0E0B0E026
:10028000A8019701281B390B4A0B5B0B2A3031055B
:100290004105510530F00E946901F0920601E0929B
:1002A00005018091070190910801A0E0B0E0A8014C
:1002B0009701281B390B4A0B5B0B24313105410593
:1002C0005105A0F20E94BF02F0920801E0920701DE
:1002D000CDCFEF92FF920F931F9382E061E00E94D7
:1002E00020020E94B2007B018C0180910901909153
:1002F0000A01A0910B01B0910C01A8019701281BE4
:10030000390B4A0B5B0BDA01C901845F9140A040B5
:10031000B04088F0609100016095617060930001C9
:1003200085E00E942002E0920901F0920A01009308
:100330000B0110930C0182E060E00E9420020E94F9
:10034000B5021F910F91FF90EF9008950E94EF0169
:1003500085E0609100010E9420020E94B20060933B
:10036000090170930A0180930B0190930C01089589
:10037000322F413069F424B181E090E0062E02C0B2
:10038000880F991F0A94E2F7282B24B9519A0CC0C0
:1003900024B181E090E0062E02C0880F991F0A94D4
:1003A000E2F78095822384B9313061F425B181E090
:1003B00090E002C0880F991F6A95E2F7282B25B9B3
:1003C000599A089525B181E090E002C0880F991FE5
:1003D0006A95E2F78095822385B95998089582E459
:1003E00060E041E020E00E94B80182E461E041E089
:1003F00020E00E94B80182E462E041E020E00E9437
:10040000B80182E463E041E020E00E94B80182E4A8
:1004100064E041E020E00E94B80182E465E041E050
:1004200020E00E94B80182E466E041E020E00E9402
:10043000B80182E467E041E020E00E94B80108953D
:10044000382F662361F025B181E090E002C0880F6B
:10045000991F3A95E2F7282B25B9599A089525B1A5
:1004600081E090E002C0880F991F3A95E2F78095ED
:10047000822385B9089581E090E0062E02C0880F9E
:10048000991F0A94E2F78570907002C09595879540
:100490006A95E2F7089525B181E090E002C0880FE7
:1004A000991F6A95E2F7282725B9089515B814B859
:1004B00008958BB161E00E944B02089581E060E0F5
:1004C0000E942002089581E061E00E9420020895C8
:1004D0008BB161E041E020E00E94B80108958FB740
:1004E00080688FBF08958FB78F778FBF0895F89476
:1004F000E0E6F0E08081886180831082789408953E
:100500000E94B2028093100180910F01882369F448
:1005100080911001882349F480910D01882329F0EE
:1005200081E061E00E942002A895089581E061E0E9
:100530000E9420028FB78F778FBFA89584B7877FDF
:1005400084BFE0E6F0E010828081886180838AE4E5
:100550008083789481E060E00E9420028FB78068F9
:100560008FBF089580910F0108958091110190919E
:100570001201019690931201809311010895EF9258
:10058000FF920F931F9310920D0183E061E00E9490
:1005900020020E94B2009B01AC0180911301909156
:1005A0001401A0E0B0E079018A01E81AF90A0A0B07
:1005B0001B0BD801C70184369105A105B105F8F0E0
:1005C0008091110190911201089760F080911101C2
:1005D000909112010D9730F410920F0181E08093F9
:1005E0000E0105C081E080930F0110920E01109260
:1005F000120110921101309314012093130183E032
:1006000060E00E94200281E080930D011F910F9114
:10061000FF90EF9008951092120110921101109224
:100620000E0110920F010E94B200709314016093AA
:10063000130108959BB1282F207F9F70292B2BB980
:100640005A985B9A5B989BB18295807F9F70982B9C
:100650009BB95B9A5B9808959BB1282F207F9F7070
:10066000292B2BB95A9A5B9A5B989BB18295807F14
:100670009F70982B9BB95B9A5B980895CF93DF93FB
:10068000EC0102C00E942C0389918823D9F7DF91E5
:10069000CF910895CF93DF93EA01882331F460313D
:1006A00068F46F70862F806807C0813039F460313C
:1006B00028F46F70862F806C0E941A03CE010E946E
:1006C0003E03DF91CF91089581E00E941A0380E8F4
:1006D0000E941A0308950E9464038FEF8AB982E092
:1006E0000E941A0388E20E941A038CE00E941A03F7
:1006F00086E00E941A0381E00E941A030895AC016B
:10070000615020E00CC0DA01A20FB11D9C91FA01EA
:10071000E60FF11D80818C9390832F5F6150261727
:1007200090F30895EF92FF920F931F93CF93DF936F
:100730008C017B01EA01CA010297839718F0FB0143
:10074000108220C040E0C801BE010E94E5048A304A
:10075000910514F0895A01C0805DF701E40FF11D85
:1007600080834F5FC801BE010E94E5048B016115C3
:10077000710549F7F701E40FF11D1082C701642FDD
:100780000E947F03C701DF91CF911F910F91FF90CE
:10079000EF900895F894882319F08130E1F51DC099
:1007A0005298662321F480916900836032C06130E1
:1007B00049F4809169008E7F80936900809169007F
:1007C000826027C0623039F5809169008160809332
:1007D0006900809169008D7F1CC05398662321F4C5
:1007E000809169008C6015C0613049F48091690086
:1007F0008B7F809369008091690088600AC06230B5
:1008000051F480916900846080936900809169004F
:10081000877F8093690078940895882311F4E89A7B
:100820000895813009F4E99A0895882311F4E8982D
:100830000895813009F4E9980895882311F4E09A25
:100840000895813009F4E19A0895882319F48CB34E
:1008500081700895813011F080E008958CB390E0AC
:100860009695879581700895F894882319F08130C2
:10087000D1F51CC0662321F480916900836031C0EA
:10088000613049F4809169008E7F80936900809186
:100890006900826026C0623031F580916900816014
:1008A00080936900809169008D7F1BC0662321F4CD
:1008B000809169008C6015C0613049F480916900B5
:1008C0008B7F809369008091690088600AC06230E4
:1008D00051F480916900846080936900809169007F
:1008E000877F8093690078940895882311F4E89AAB
:1008F0000895813009F4E99A0895882311F4E8985D
:100900000895813009F4E99808950E947D040895BE
:10091000823040F4E82FF0E0EE0FFF1FEB5EFE4F59
:100920007183608308951F920F920FB60F92112466
:100930002F933F934F935F936F937F938F939F93E7
:10094000AF93BF93EF93FF93E0911501F0911601E0
:10095000309709F00995FF91EF91BF91AF919F9169
:100960008F917F916F915F914F913F912F910F9058
:100970000FBE0F901F9018951F920F920FB60F92F7
:1009800011242F933F934F935F936F937F938F9394
:100990009F93AF93BF93EF93FF93E0911701F09173
:1009A0001801309709F00995FF91EF91BF91AF9130
:1009B0009F918F917F916F915F914F913F912F9177
:1009C0000F900FBE0F901F901895AA1BBB1B51E1F3
:1009D00007C0AA1FBB1FA617B70710F0A61BB70BAF
:1009E000881F991F5A95A9F780959095BC01CD0154
:0609F0000895F894FFCF0A
:0209F6000100FE
:00000001FF
